:020000000328D3
:100006000730831299008316850183128501031E2A
:100016000F28A2010130A400FF3022020318142881
:10002600A20A26082506D1005108240203183628FC
:100036002318202883120510222883120514031A78
:1000460035283230220203183428A40D24100D302E
:10005600DC00FB30DD00DD0B2E28DC0B2E2800003B
:100066000000362805102608A5002208323C031891
:100076004128831285100130A30044288312851479
:10008600A301F93083168100A601A60A48284A284A
:02400E00DA31A5
:00000001FF
